:100000000C942A000C9434000C9434000C943400AA
:100010000C9434000C9434000C9434000C94340090
:100020000C9434000C9434000C9434000C94340080
:100030000C9434000C9434000C9434000C94340070
:100040000C9434000C9434000C9434000C94340060
:100050000C94340011241FBECFE5D8E0DEBFCDBF25
:100060000E94E3030C94EE050C940000DF93CF9301
:10007000CDB7DEB72B970FB6F894DEBF0FBECDBF5E
:1000800089836A834B8389818823C1F58B81282FDB
:1000900030E03B872A878A859B85009731F02A8547
:1000A0003B8521303105B1F0D9C0AAE3B0E0EAE3E5
:1000B000F0E08081482F8A81282F30E081E090E0B5
:1000C000022E02C0880F991F0A94E2F780958423BC
:1000D0008C93C4C0AAE3B0E0EAE3F0E08081482F4B
:1000E0008A81282F30E081E090E0022E02C0880F44
:1000F000991F0A94E2F7842B8C93B0C089818130D8
:10010000C1F58B81282F30E039872887888599852C
:10011000009731F02885398521303105B1F09EC036
:10012000A7E3B0E0E7E3F0E08081482F8A81282F41
:1001300030E081E090E0022E02C0880F991F0A94FF
:10014000E2F7809584238C9389C0A7E3B0E0E7E3CE
:10015000F0E08081482F8A81282F30E081E090E014
:10016000022E02C0880F991F0A94E2F7842B8C9309
:1001700075C089818230C1F58B81282F30E03F83A3
:100180002E838E819F81009731F02E813F81213017
:100190003105B1F063C0A4E3B0E0E4E3F0E08081B6
:1001A000482F8A81282F30E081E090E0022E02C0A3
:1001B000880F991F0A94E2F7809584238C934EC090
:1001C000A4E3B0E0E4E3F0E08081482F8A81282FA7
:1001D00030E081E090E0022E02C0880F991F0A945F
:1001E000E2F7842B8C933AC089818330B9F58B81F7
:1001F000282F30E03D832C838C819D81009731F046
:100200002C813D8121303105B1F028C0A1E3B0E05F
:10021000E1E3F0E08081482F8A81282F30E081E0FF
:1002200090E0022E02C0880F991F0A94E2F7809591
:1002300084238C9313C0A1E3B0E0E1E3F0E080817C
:10024000482F8A81282F30E081E090E0022E02C002
:10025000880F991F0A94E2F7842B8C932B960FB684
:10026000F894DEBF0FBECDBFCF91DF910895DF932D
:10027000CF93CDB7DEB72B970FB6F894DEBF0FBE86
:10028000CDBF89836A834B8389818823C1F58B81A4
:10029000282F30E03B872A878A859B85009731F09D
:1002A0002A853B8521303105B1F0D9C0ABE3B0E000
:1002B000EBE3F0E08081482F8A81282F30E081E055
:1002C00090E0022E02C0880F991F0A94E2F78095F1
:1002D00084238C93C4C0ABE3B0E0EBE3F0E0808117
:1002E000482F8A81282F30E081E090E0022E02C062
:1002F000880F991F0A94E2F7842B8C93B0C08981F0
:100300008130C1F58B81282F30E039872887888597
:100310009985009731F02885398521303105B1F074
:100320009EC0A8E3B0E0E8E3F0E08081482F8A8136
:10033000282F30E081E090E0022E02C0880F991F44
:100340000A94E2F7809584238C9389C0A8E3B0E0F7
:10035000E8E3F0E08081482F8A81282F30E081E0B7
:1003600090E0022E02C0880F991F0A94E2F7842BB6
:100370008C9375C089818230C1F58B81282F30E044
:100380003F832E838E819F81009731F02E813F81A4
:1003900021303105B1F063C0A5E3B0E0E5E3F0E062
:1003A0008081482F8A81282F30E081E090E0022E62
:1003B00002C0880F991F0A94E2F7809584238C93DA
:1003C0004EC0A5E3B0E0E5E3F0E08081482F8A81EC
:1003D000282F30E081E090E0022E02C0880F991FA4
:1003E0000A94E2F7842B8C933AC089818330B9F563
:1003F0008B81282F30E03D832C838C819D81009759
:1004000031F02C813D8121303105B1F028C0A2E3CB
:10041000B0E0E2E3F0E08081482F8A81282F30E0CD
:1004200081E090E0022E02C0880F991F0A94E2F743
:10043000809584238C9313C0A2E3B0E0E2E3F0E064
:100440008081482F8A81282F30E081E090E0022EC1
:1004500002C0880F991F0A94E2F7842B8C932B9685
:100460000FB6F894DEBF0FBECDBFCF91DF910895D8
:10047000DF93CF9300D000D00F92CDB7DEB78A8341
:100480006B838A81282F30E03D832C834C815D81F2
:100490004130510541F18C819D818230910534F4C8
:1004A0002C813D812115310561F052C04C815D8167
:1004B0004230510551F18C819D8183309105B9F114
:1004C00047C0E9E3F0E08081282F30E08B81882F5E
:1004D00090E0A90102C0559547958A95E2F7CA01B7
:1004E0008170898335C0E6E3F0E08081282F30E019
:1004F0008B81882F90E0A90102C0559547958A9578
:10050000E2F7CA018170898323C0E3E3F0E08081D0
:10051000282F30E08B81882F90E0A90102C05595EB
:1005200047958A95E2F7CA018170898311C0E0E39B
:10053000F0E08081282F30E08B81882F90E0A901A6
:1005400002C0559547958A95E2F7CA018170898363
:1005500089810F900F900F900F900F90CF91DF91A6
:100560000895DF93CF9300D000D000D0CDB7DEB791
:1005700089836A838A81882379F58981282F30E0ED
:100580003E832D838D819E8181309105C9F02D811F
:100590003E81223031052CF48D819E81009761F0DF
:1005A00050C02D813E812230310571F08D819E81B8
:1005B0008330910569F045C0EAE3F0E0108241C064
:1005C000E7E3F0E010823DC0E4E3F0E0108239C0E0
:1005D000E1E3F0E0108235C08A81813091F58981B4
:1005E000282F30E03C832B838B819C8181309105C7
:1005F000D1F02B813C81223031052CF48B819C8100
:10060000009761F01EC02B813C812230310581F0C2
:100610008B819C818330910581F013C0EAE3F0E087
:100620008FEF80830EC0E7E3F0E08FEF808309C097
:10063000E4E3F0E08FEF808304C0E1E3F0E08FEFCC
:10064000808326960FB6F894DEBF0FBECDBFCF9144
:10065000DF910895DF93CF9300D000D000D0CDB7C5
:10066000DEB789836A838A81882379F58981282F77
:1006700030E03E832D838D819E8181309105C9F0CC
:100680002D813E81223031052CF48D819E81009791
:1006900061F050C02D813E812230310571F08D8195
:1006A0009E818330910569F045C0EBE3F0E0108254
:1006B00041C0E8E3F0E010823DC0E5E3F0E01082E5
:1006C00039C0E2E3F0E0108235C08A81813091F5D3
:1006D0008981282F30E03C832B838B819C81813062
:1006E0009105D1F02B813C81223031052CF48B8196
:1006F0009C81009761F01EC02B813C812230310526
:1007000081F08B819C818330910581F013C0EBE3F4
:10071000F0E08FEF80830EC0E8E3F0E08FEF80839E
:1007200009C0E5E3F0E08FEF808304C0E2E3F0E08E
:100730008FEF808326960FB6F894DEBF0FBECDBF35
:10074000CF91DF910895DF93CF93CDB7DEB7E9E284
:10075000F0E08DE48083E0E4F0E01082E0E4F0E09B
:1007600086E88083EAE2F0E088E18083CF91DF9140
:100770000895DF93CF930F92CDB7DEB78983EBE275
:10078000F0E08081882F90E0807290700097B9F33C
:10079000ECE2F0E0898180830F90CF91DF910895A2
:1007A000DF93CF930F92CDB7DEB7EBE2F0E080811D
:1007B0008823DCF7ECE2F0E08081898389810F9067
:1007C000CF91DF9108950F931F93DF93CF93CDB710
:1007D000DEB762970FB6F894DEBF0FBECDBF1A82A8
:1007E000198283E060E040E00E94360083E061E02F
:1007F00041E00E94360080E060E041E00E94360067
:1008000080E061E041E00E9436000E94A3035EC0E8
:100810008A81082F10E00E94D003282FCE01039672
:10082000FC01E00FF11F20838A818F5F8A838B8117
:10083000813441F48C818D3629F48D81823711F415
:100840008AE08A838B818A3641F48C818F3629F441
:100850008D818F3611F48AE08A838B818B3471F419
:100860008C81813659F48D81823741F48E818536B1
:1008700029F48F818D3611F48AE08A838B8181344B
:1008800071F48C81883659F48D818D3641F48E81D6
:10089000853629F48F81843611F48AE08A838B812E
:1008A0008D34A1F48C818F3689F48D81883671F472
:1008B0008E81813659F48F818D3641F48885853655
:1008C00029F48985843611F48AE08A838A818A3002
:1008D00008F49ECF8B81813409F03DC08C818D3628
:1008E000D1F58D818237B9F533C01A820FC08A8164
:1008F000082F10E00E94D003282FCE010D96FC0196
:10090000E00FF11F20838A818F5F8A838A81843080
:1009100070F38D85803389F48E85803371F48F85F3
:10092000803359F48889803341F480E060E041E00D
:100930000E9437011A8A198A44C18981823029F4B8
:1009400080E061E041E00E94370189818F5F898307
:100950008981833050F28B818A3609F041C08C81C5
:100960008F3609F03DC08D818F36D1F536C01A82A1
:100970000FC08A81082F10E00E94D003282FCE01DB
:100980000D96FC01E00FF11F20838A818F5F8A831F
:100990008A81843070F38D85813389F48E8581332B
:1009A00071F48F85813359F48889813341F480E073
:1009B00060E041E00E9437011A8A198A02C18981E8
:1009C000833041F480E061E041E00E9437011A8AFF
:1009D000198AF7C089818F5F89838981833038F2D2
:1009E0008B818B3409F049C08C81813609F045C078
:1009F0008D81823709F041C08E81853609F03DC076
:100A00008F818D36D1F536C01A820FC08A81082FAA
:100A100010E00E94D003282FCE010D96FC01E00FBC
:100A2000F11F20838A818F5F8A838A81843070F3EB
:100A30008D85823389F48E85823371F48F8582337C
:100A400059F48889823341F480E060E041E00E94FB
:100A500037011A8A198AB5C08981833041F480E050
:100A600061E041E00E9437011A8A198AAAC089818F
:100A70008F5F89838981833038F28B81813409F0DB
:100A800049C08C81883609F045C08D818D3609F0CA
:100A900041C08E81853609F03DC08F818436D1F505
:100AA00036C01A820FC08A81082F10E00E94D0033E
:100AB000282FCE010D96FC01E00FF11F20838A81C3
:100AC0008F5F8A838A81843070F38D85833389F4C4
:100AD0008E85833371F48F85833359F4888983330A
:100AE00041F480E060E041E00E9437011A8A198AEF
:100AF00068C08981833041F480E061E041E00E9478
:100B000037011A8A198A5DC089818F5F898389813B
:100B1000833038F28B818D3409F0D8CE8C818F36BA
:100B200009F0D4CE8D81883609F0D0CE8E81813601
:100B300009F0CCCE8F818D3609F0C8CE88858536F8
:100B400009F0C4CE8985843609F0C0CE36C01A8239
:100B50000FC08A81082F10E00E94D003282FCE01F9
:100B60000D96FC01E00FF11F20838A818F5F8A833D
:100B70008A81843070F38D85843389F48E85843343
:100B800071F48F85843359F48889843341F480E08B
:100B900060E041E00E9437011A8A198A12C08981F7
:100BA000833041F480E061E041E00E9437011A8A1D
:100BB000198A07C089818F5F89838981833038F2E0
:100BC00085CE89899A8962960FB6F894DEBF0FBEEA
:100BD000CDBFCF91DF911F910F910895F894FFCF72
:00000001FF
